{
  "contractName": "NotesExchange",
  "abi": [
    {
      "inputs": [],
      "stateMutability": "nonpayable",
      "type": "constructor"
    },
    {
      "anonymous": false,
      "inputs": [
        {
          "components": [
            {
              "internalType": "uint256",
              "name": "id",
              "type": "uint256"
            },
            {
              "internalType": "uint256",
              "name": "notesValue",
              "type": "uint256"
            },
            {
              "internalType": "address payable",
              "name": "noteTaker",
              "type": "address"
            },
            {
              "internalType": "address payable[]",
              "name": "owners",
              "type": "address[]"
            },
            {
              "internalType": "bool",
              "name": "forBuy",
              "type": "bool"
            },
            {
              "internalType": "bytes32",
              "name": "notesHash",
              "type": "bytes32"
            },
            {
              "internalType": "string",
              "name": "title",
              "type": "string"
            },
            {
              "internalType": "string",
              "name": "description",
              "type": "string"
            }
          ],
          "indexed": false,
          "internalType": "struct NotesExchange.Notes",
          "name": "notes",
          "type": "tuple"
        }
      ],
      "name": "NotesForSaleDisabled",
      "type": "event"
    },
    {
      "anonymous": false,
      "inputs": [
        {
          "components": [
            {
              "internalType": "uint256",
              "name": "id",
              "type": "uint256"
            },
            {
              "internalType": "uint256",
              "name": "notesValue",
              "type": "uint256"
            },
            {
              "internalType": "address payable",
              "name": "noteTaker",
              "type": "address"
            },
            {
              "internalType": "address payable[]",
              "name": "owners",
              "type": "address[]"
            },
            {
              "internalType": "bool",
              "name": "forBuy",
              "type": "bool"
            },
            {
              "internalType": "bytes32",
              "name": "notesHash",
              "type": "bytes32"
            },
            {
              "internalType": "string",
              "name": "title",
              "type": "string"
            },
            {
              "internalType": "string",
              "name": "description",
              "type": "string"
            }
          ],
          "indexed": false,
          "internalType": "struct NotesExchange.Notes",
          "name": "notes",
          "type": "tuple"
        }
      ],
      "name": "NotesForSaleEnabled",
      "type": "event"
    },
    {
      "anonymous": false,
      "inputs": [
        {
          "components": [
            {
              "internalType": "uint256",
              "name": "id",
              "type": "uint256"
            },
            {
              "internalType": "uint256",
              "name": "notesValue",
              "type": "uint256"
            },
            {
              "internalType": "address payable",
              "name": "noteTaker",
              "type": "address"
            },
            {
              "internalType": "address payable[]",
              "name": "owners",
              "type": "address[]"
            },
            {
              "internalType": "bool",
              "name": "forBuy",
              "type": "bool"
            },
            {
              "internalType": "bytes32",
              "name": "notesHash",
              "type": "bytes32"
            },
            {
              "internalType": "string",
              "name": "title",
              "type": "string"
            },
            {
              "internalType": "string",
              "name": "description",
              "type": "string"
            }
          ],
          "indexed": false,
          "internalType": "struct NotesExchange.Notes",
          "name": "notes",
          "type": "tuple"
        }
      ],
      "name": "NotesPublished",
      "type": "event"
    },
    {
      "anonymous": false,
      "inputs": [
        {
          "components": [
            {
              "internalType": "uint256",
              "name": "id",
              "type": "uint256"
            },
            {
              "components": [
                {
                  "internalType": "uint256",
                  "name": "id",
                  "type": "uint256"
                },
                {
                  "internalType": "uint256",
                  "name": "notesValue",
                  "type": "uint256"
                },
                {
                  "internalType": "address payable",
                  "name": "noteTaker",
                  "type": "address"
                },
                {
                  "internalType": "address payable[]",
                  "name": "owners",
                  "type": "address[]"
                },
                {
                  "internalType": "bool",
                  "name": "forBuy",
                  "type": "bool"
                },
                {
                  "internalType": "bytes32",
                  "name": "notesHash",
                  "type": "bytes32"
                },
                {
                  "internalType": "string",
                  "name": "title",
                  "type": "string"
                },
                {
                  "internalType": "string",
                  "name": "description",
                  "type": "string"
                }
              ],
              "internalType": "struct NotesExchange.Notes",
              "name": "notes",
              "type": "tuple"
            },
            {
              "internalType": "enum NotesExchange.State",
              "name": "transactionState",
              "type": "uint8"
            },
            {
              "internalType": "uint256",
              "name": "depositedMoney",
              "type": "uint256"
            },
            {
              "internalType": "address payable",
              "name": "renter",
              "type": "address"
            },
            {
              "internalType": "address payable",
              "name": "fulfiller",
              "type": "address"
            },
            {
              "internalType": "string",
              "name": "subject",
              "type": "string"
            },
            {
              "internalType": "uint256",
              "name": "deadline",
              "type": "uint256"
            }
          ],
          "indexed": false,
          "internalType": "struct NotesExchange.NotesService",
          "name": "renting",
          "type": "tuple"
        }
      ],
      "name": "NotesServiceAborted",
      "type": "event"
    },
    {
      "anonymous": false,
      "inputs": [
        {
          "components": [
            {
              "internalType": "uint256",
              "name": "id",
              "type": "uint256"
            },
            {
              "components": [
                {
                  "internalType": "uint256",
                  "name": "id",
                  "type": "uint256"
                },
                {
                  "internalType": "uint256",
                  "name": "notesValue",
                  "type": "uint256"
                },
                {
                  "internalType": "address payable",
                  "name": "noteTaker",
                  "type": "address"
                },
                {
                  "internalType": "address payable[]",
                  "name": "owners",
                  "type": "address[]"
                },
                {
                  "internalType": "bool",
                  "name": "forBuy",
                  "type": "bool"
                },
                {
                  "internalType": "bytes32",
                  "name": "notesHash",
                  "type": "bytes32"
                },
                {
                  "internalType": "string",
                  "name": "title",
                  "type": "string"
                },
                {
                  "internalType": "string",
                  "name": "description",
                  "type": "string"
                }
              ],
              "internalType": "struct NotesExchange.Notes",
              "name": "notes",
              "type": "tuple"
            },
            {
              "internalType": "enum NotesExchange.State",
              "name": "transactionState",
              "type": "uint8"
            },
            {
              "internalType": "uint256",
              "name": "depositedMoney",
              "type": "uint256"
            },
            {
              "internalType": "address payable",
              "name": "renter",
              "type": "address"
            },
            {
              "internalType": "address payable",
              "name": "fulfiller",
              "type": "address"
            },
            {
              "internalType": "string",
              "name": "subject",
              "type": "string"
            },
            {
              "internalType": "uint256",
              "name": "deadline",
              "type": "uint256"
            }
          ],
          "indexed": false,
          "internalType": "struct NotesExchange.NotesService",
          "name": "renting",
          "type": "tuple"
        }
      ],
      "name": "NotesServiceAwaitingAcceptance",
      "type": "event"
    },
    {
      "anonymous": false,
      "inputs": [
        {
          "components": [
            {
              "internalType": "uint256",
              "name": "id",
              "type": "uint256"
            },
            {
              "components": [
                {
                  "internalType": "uint256",
                  "name": "id",
                  "type": "uint256"
                },
                {
                  "internalType": "uint256",
                  "name": "notesValue",
                  "type": "uint256"
                },
                {
                  "internalType": "address payable",
                  "name": "noteTaker",
                  "type": "address"
                },
                {
                  "internalType": "address payable[]",
                  "name": "owners",
                  "type": "address[]"
                },
                {
                  "internalType": "bool",
                  "name": "forBuy",
                  "type": "bool"
                },
                {
                  "internalType": "bytes32",
                  "name": "notesHash",
                  "type": "bytes32"
                },
                {
                  "internalType": "string",
                  "name": "title",
                  "type": "string"
                },
                {
                  "internalType": "string",
                  "name": "description",
                  "type": "string"
                }
              ],
              "internalType": "struct NotesExchange.Notes",
              "name": "notes",
              "type": "tuple"
            },
            {
              "internalType": "enum NotesExchange.State",
              "name": "transactionState",
              "type": "uint8"
            },
            {
              "internalType": "uint256",
              "name": "depositedMoney",
              "type": "uint256"
            },
            {
              "internalType": "address payable",
              "name": "renter",
              "type": "address"
            },
            {
              "internalType": "address payable",
              "name": "fulfiller",
              "type": "address"
            },
            {
              "internalType": "string",
              "name": "subject",
              "type": "string"
            },
            {
              "internalType": "uint256",
              "name": "deadline",
              "type": "uint256"
            }
          ],
          "indexed": false,
          "internalType": "struct NotesExchange.NotesService",
          "name": "renting",
          "type": "tuple"
        }
      ],
      "name": "NotesServiceCompleted",
      "type": "event"
    },
    {
      "anonymous": false,
      "inputs": [
        {
          "components": [
            {
              "internalType": "uint256",
              "name": "id",
              "type": "uint256"
            },
            {
              "components": [
                {
                  "internalType": "uint256",
                  "name": "id",
                  "type": "uint256"
                },
                {
                  "internalType": "uint256",
                  "name": "notesValue",
                  "type": "uint256"
                },
                {
                  "internalType": "address payable",
                  "name": "noteTaker",
                  "type": "address"
                },
                {
                  "internalType": "address payable[]",
                  "name": "owners",
                  "type": "address[]"
                },
                {
                  "internalType": "bool",
                  "name": "forBuy",
                  "type": "bool"
                },
                {
                  "internalType": "bytes32",
                  "name": "notesHash",
                  "type": "bytes32"
                },
                {
                  "internalType": "string",
                  "name": "title",
                  "type": "string"
                },
                {
                  "internalType": "string",
                  "name": "description",
                  "type": "string"
                }
              ],
              "internalType": "struct NotesExchange.Notes",
              "name": "notes",
              "type": "tuple"
            },
            {
              "internalType": "enum NotesExchange.State",
              "name": "transactionState",
              "type": "uint8"
            },
            {
              "internalType": "uint256",
              "name": "depositedMoney",
              "type": "uint256"
            },
            {
              "internalType": "address payable",
              "name": "renter",
              "type": "address"
            },
            {
              "internalType": "address payable",
              "name": "fulfiller",
              "type": "address"
            },
            {
              "internalType": "string",
              "name": "subject",
              "type": "string"
            },
            {
              "internalType": "uint256",
              "name": "deadline",
              "type": "uint256"
            }
          ],
          "indexed": false,
          "internalType": "struct NotesExchange.NotesService",
          "name": "renting",
          "type": "tuple"
        }
      ],
      "name": "NotesServiceDelegated",
      "type": "event"
    },
    {
      "anonymous": false,
      "inputs": [
        {
          "components": [
            {
              "internalType": "uint256",
              "name": "id",
              "type": "uint256"
            },
            {
              "components": [
                {
                  "internalType": "uint256",
                  "name": "id",
                  "type": "uint256"
                },
                {
                  "internalType": "uint256",
                  "name": "notesValue",
                  "type": "uint256"
                },
                {
                  "internalType": "address payable",
                  "name": "noteTaker",
                  "type": "address"
                },
                {
                  "internalType": "address payable[]",
                  "name": "owners",
                  "type": "address[]"
                },
                {
                  "internalType": "bool",
                  "name": "forBuy",
                  "type": "bool"
                },
                {
                  "internalType": "bytes32",
                  "name": "notesHash",
                  "type": "bytes32"
                },
                {
                  "internalType": "string",
                  "name": "title",
                  "type": "string"
                },
                {
                  "internalType": "string",
                  "name": "description",
                  "type": "string"
                }
              ],
              "internalType": "struct NotesExchange.Notes",
              "name": "notes",
              "type": "tuple"
            },
            {
              "internalType": "enum NotesExchange.State",
              "name": "transactionState",
              "type": "uint8"
            },
            {
              "internalType": "uint256",
              "name": "depositedMoney",
              "type": "uint256"
            },
            {
              "internalType": "address payable",
              "name": "renter",
              "type": "address"
            },
            {
              "internalType": "address payable",
              "name": "fulfiller",
              "type": "address"
            },
            {
              "internalType": "string",
              "name": "subject",
              "type": "string"
            },
            {
              "internalType": "uint256",
              "name": "deadline",
              "type": "uint256"
            }
          ],
          "indexed": false,
          "internalType": "struct NotesExchange.NotesService",
          "name": "renting",
          "type": "tuple"
        }
      ],
      "name": "NotesServicePending",
      "type": "event"
    },
    {
      "anonymous": false,
      "inputs": [
        {
          "components": [
            {
              "internalType": "uint256",
              "name": "id",
              "type": "uint256"
            },
            {
              "internalType": "uint256",
              "name": "notesValue",
              "type": "uint256"
            },
            {
              "internalType": "address payable",
              "name": "noteTaker",
              "type": "address"
            },
            {
              "internalType": "address payable[]",
              "name": "owners",
              "type": "address[]"
            },
            {
              "internalType": "bool",
              "name": "forBuy",
              "type": "bool"
            },
            {
              "internalType": "bytes32",
              "name": "notesHash",
              "type": "bytes32"
            },
            {
              "internalType": "string",
              "name": "title",
              "type": "string"
            },
            {
              "internalType": "string",
              "name": "description",
              "type": "string"
            }
          ],
          "indexed": false,
          "internalType": "struct NotesExchange.Notes",
          "name": "notes",
          "type": "tuple"
        },
        {
          "indexed": false,
          "internalType": "address",
          "name": "renter",
          "type": "address"
        }
      ],
      "name": "NotesSold",
      "type": "event"
    },
    {
      "inputs": [],
      "name": "owner",
      "outputs": [
        {
          "internalType": "address payable",
          "name": "",
          "type": "address"
        }
      ],
      "stateMutability": "view",
      "type": "function",
      "constant": true
    },
    {
      "inputs": [
        {
          "internalType": "uint256",
          "name": "weiAmount",
          "type": "uint256"
        }
      ],
      "name": "weiToEth",
      "outputs": [
        {
          "internalType": "uint256",
          "name": "",
          "type": "uint256"
        }
      ],
      "stateMutability": "pure",
      "type": "function",
      "constant": true
    },
    {
      "inputs": [
        {
          "internalType": "address",
          "name": "renter",
          "type": "address"
        },
        {
          "components": [
            {
              "internalType": "uint256",
              "name": "id",
              "type": "uint256"
            },
            {
              "internalType": "uint256",
              "name": "notesValue",
              "type": "uint256"
            },
            {
              "internalType": "address payable",
              "name": "noteTaker",
              "type": "address"
            },
            {
              "internalType": "address payable[]",
              "name": "owners",
              "type": "address[]"
            },
            {
              "internalType": "bool",
              "name": "forBuy",
              "type": "bool"
            },
            {
              "internalType": "bytes32",
              "name": "notesHash",
              "type": "bytes32"
            },
            {
              "internalType": "string",
              "name": "title",
              "type": "string"
            },
            {
              "internalType": "string",
              "name": "description",
              "type": "string"
            }
          ],
          "internalType": "struct NotesExchange.Notes",
          "name": "note",
          "type": "tuple"
        }
      ],
      "name": "owns",
      "outputs": [
        {
          "internalType": "bool",
          "name": "",
          "type": "bool"
        }
      ],
      "stateMutability": "pure",
      "type": "function",
      "constant": true
    },
    {
      "inputs": [
        {
          "internalType": "uint256",
          "name": "notesId",
          "type": "uint256"
        }
      ],
      "name": "buyNotes",
      "outputs": [],
      "stateMutability": "payable",
      "type": "function",
      "payable": true
    },
    {
      "inputs": [
        {
          "internalType": "string",
          "name": "title",
          "type": "string"
        },
        {
          "internalType": "string",
          "name": "description",
          "type": "string"
        },
        {
          "internalType": "uint256",
          "name": "notesValue",
          "type": "uint256"
        },
        {
          "internalType": "bytes",
          "name": "data",
          "type": "bytes"
        }
      ],
      "name": "publishNotesForSale",
      "outputs": [],
      "stateMutability": "payable",
      "type": "function",
      "payable": true
    },
    {
      "inputs": [
        {
          "internalType": "uint256",
          "name": "notesId",
          "type": "uint256"
        }
      ],
      "name": "enableNotesForSale",
      "outputs": [],
      "stateMutability": "nonpayable",
      "type": "function"
    },
    {
      "inputs": [
        {
          "internalType": "uint256",
          "name": "notesId",
          "type": "uint256"
        }
      ],
      "name": "disableNotesForSale",
      "outputs": [],
      "stateMutability": "nonpayable",
      "type": "function"
    },
    {
      "inputs": [
        {
          "internalType": "string",
          "name": "subject",
          "type": "string"
        },
        {
          "internalType": "uint256",
          "name": "deadline",
          "type": "uint256"
        },
        {
          "internalType": "address",
          "name": "fulfiller",
          "type": "address"
        }
      ],
      "name": "createNotesService",
      "outputs": [],
      "stateMutability": "payable",
      "type": "function",
      "payable": true
    },
    {
      "inputs": [
        {
          "internalType": "uint256",
          "name": "rentingId",
          "type": "uint256"
        },
        {
          "internalType": "address",
          "name": "newFulfiller",
          "type": "address"
        }
      ],
      "name": "delegateNotesService",
      "outputs": [],
      "stateMutability": "nonpayable",
      "type": "function"
    },
    {
      "inputs": [
        {
          "internalType": "uint256",
          "name": "rentingId",
          "type": "uint256"
        }
      ],
      "name": "rejectService",
      "outputs": [],
      "stateMutability": "nonpayable",
      "type": "function"
    },
    {
      "inputs": [
        {
          "internalType": "uint256",
          "name": "rentingId",
          "type": "uint256"
        }
      ],
      "name": "cancelRequestedService",
      "outputs": [],
      "stateMutability": "nonpayable",
      "type": "function"
    },
    {
      "inputs": [
        {
          "internalType": "uint256",
          "name": "rentingId",
          "type": "uint256"
        }
      ],
      "name": "claimRefund",
      "outputs": [],
      "stateMutability": "nonpayable",
      "type": "function"
    },
    {
      "inputs": [
        {
          "internalType": "uint256",
          "name": "rentingId",
          "type": "uint256"
        },
        {
          "internalType": "string",
          "name": "title",
          "type": "string"
        },
        {
          "internalType": "string",
          "name": "description",
          "type": "string"
        },
        {
          "internalType": "bytes",
          "name": "data",
          "type": "bytes"
        }
      ],
      "name": "fulfillNotesService",
      "outputs": [],
      "stateMutability": "payable",
      "type": "function",
      "payable": true
    },
    {
      "inputs": [
        {
          "internalType": "uint256",
          "name": "rentingId",
          "type": "uint256"
        }
      ],
      "name": "acceptNotesService",
      "outputs": [],
      "stateMutability": "nonpayable",
      "type": "function"
    },
    {
      "inputs": [],
      "name": "getBalance",
      "outputs": [
        {
          "internalType": "uint256",
          "name": "",
          "type": "uint256"
        }
      ],
      "stateMutability": "view",
      "type": "function",
      "constant": true
    },
    {
      "inputs": [],
      "name": "getAllNotesOnSale",
      "outputs": [
        {
          "components": [
            {
              "internalType": "uint256",
              "name": "id",
              "type": "uint256"
            },
            {
              "internalType": "uint256",
              "name": "notesValue",
              "type": "uint256"
            },
            {
              "internalType": "address payable",
              "name": "noteTaker",
              "type": "address"
            },
            {
              "internalType": "address payable[]",
              "name": "owners",
              "type": "address[]"
            },
            {
              "internalType": "bool",
              "name": "forBuy",
              "type": "bool"
            },
            {
              "internalType": "bytes32",
              "name": "notesHash",
              "type": "bytes32"
            },
            {
              "internalType": "string",
              "name": "title",
              "type": "string"
            },
            {
              "internalType": "string",
              "name": "description",
              "type": "string"
            }
          ],
          "internalType": "struct NotesExchange.Notes[]",
          "name": "",
          "type": "tuple[]"
        }
      ],
      "stateMutability": "view",
      "type": "function",
      "constant": true
    },
    {
      "inputs": [],
      "name": "getMyNotes",
      "outputs": [
        {
          "components": [
            {
              "internalType": "uint256",
              "name": "id",
              "type": "uint256"
            },
            {
              "internalType": "uint256",
              "name": "notesValue",
              "type": "uint256"
            },
            {
              "internalType": "address payable",
              "name": "noteTaker",
              "type": "address"
            },
            {
              "internalType": "address payable[]",
              "name": "owners",
              "type": "address[]"
            },
            {
              "internalType": "bool",
              "name": "forBuy",
              "type": "bool"
            },
            {
              "internalType": "bytes32",
              "name": "notesHash",
              "type": "bytes32"
            },
            {
              "internalType": "string",
              "name": "title",
              "type": "string"
            },
            {
              "internalType": "string",
              "name": "description",
              "type": "string"
            }
          ],
          "internalType": "struct NotesExchange.Notes[]",
          "name": "",
          "type": "tuple[]"
        }
      ],
      "stateMutability": "view",
      "type": "function",
      "constant": true
    },
    {
      "inputs": [],
      "name": "getMyNotesOnSale",
      "outputs": [
        {
          "components": [
            {
              "internalType": "uint256",
              "name": "id",
              "type": "uint256"
            },
            {
              "internalType": "uint256",
              "name": "notesValue",
              "type": "uint256"
            },
            {
              "internalType": "address payable",
              "name": "noteTaker",
              "type": "address"
            },
            {
              "internalType": "address payable[]",
              "name": "owners",
              "type": "address[]"
            },
            {
              "internalType": "bool",
              "name": "forBuy",
              "type": "bool"
            },
            {
              "internalType": "bytes32",
              "name": "notesHash",
              "type": "bytes32"
            },
            {
              "internalType": "string",
              "name": "title",
              "type": "string"
            },
            {
              "internalType": "string",
              "name": "description",
              "type": "string"
            }
          ],
          "internalType": "struct NotesExchange.Notes[]",
          "name": "",
          "type": "tuple[]"
        }
      ],
      "stateMutability": "view",
      "type": "function",
      "constant": true
    },
    {
      "inputs": [],
      "name": "getAllNotes",
      "outputs": [
        {
          "components": [
            {
              "internalType": "uint256",
              "name": "id",
              "type": "uint256"
            },
            {
              "internalType": "uint256",
              "name": "notesValue",
              "type": "uint256"
            },
            {
              "internalType": "address payable",
              "name": "noteTaker",
              "type": "address"
            },
            {
              "internalType": "address payable[]",
              "name": "owners",
              "type": "address[]"
            },
            {
              "internalType": "bool",
              "name": "forBuy",
              "type": "bool"
            },
            {
              "internalType": "bytes32",
              "name": "notesHash",
              "type": "bytes32"
            },
            {
              "internalType": "string",
              "name": "title",
              "type": "string"
            },
            {
              "internalType": "string",
              "name": "description",
              "type": "string"
            }
          ],
          "internalType": "struct NotesExchange.Notes[]",
          "name": "",
          "type": "tuple[]"
        }
      ],
      "stateMutability": "view",
      "type": "function",
      "constant": true
    },
    {
      "inputs": [],
      "name": "getAllServices",
      "outputs": [
        {
          "components": [
            {
              "internalType": "uint256",
              "name": "id",
              "type": "uint256"
            },
            {
              "components": [
                {
                  "internalType": "uint256",
                  "name": "id",
                  "type": "uint256"
                },
                {
                  "internalType": "uint256",
                  "name": "notesValue",
                  "type": "uint256"
                },
                {
                  "internalType": "address payable",
                  "name": "noteTaker",
                  "type": "address"
                },
                {
                  "internalType": "address payable[]",
                  "name": "owners",
                  "type": "address[]"
                },
                {
                  "internalType": "bool",
                  "name": "forBuy",
                  "type": "bool"
                },
                {
                  "internalType": "bytes32",
                  "name": "notesHash",
                  "type": "bytes32"
                },
                {
                  "internalType": "string",
                  "name": "title",
                  "type": "string"
                },
                {
                  "internalType": "string",
                  "name": "description",
                  "type": "string"
                }
              ],
              "internalType": "struct NotesExchange.Notes",
              "name": "notes",
              "type": "tuple"
            },
            {
              "internalType": "enum NotesExchange.State",
              "name": "transactionState",
              "type": "uint8"
            },
            {
              "internalType": "uint256",
              "name": "depositedMoney",
              "type": "uint256"
            },
            {
              "internalType": "address payable",
              "name": "renter",
              "type": "address"
            },
            {
              "internalType": "address payable",
              "name": "fulfiller",
              "type": "address"
            },
            {
              "internalType": "string",
              "name": "subject",
              "type": "string"
            },
            {
              "internalType": "uint256",
              "name": "deadline",
              "type": "uint256"
            }
          ],
          "internalType": "struct NotesExchange.NotesService[]",
          "name": "",
          "type": "tuple[]"
        }
      ],
      "stateMutability": "view",
      "type": "function",
      "constant": true
    },
    {
      "inputs": [],
      "name": "getNotesCount",
      "outputs": [
        {
          "internalType": "uint256",
          "name": "",
          "type": "uint256"
        }
      ],
      "stateMutability": "view",
      "type": "function",
      "constant": true
    },
    {
      "inputs": [
        {
          "internalType": "uint256",
          "name": "notesId",
          "type": "uint256"
        }
      ],
      "name": "getNote",
      "outputs": [
        {
          "components": [
            {
              "internalType": "uint256",
              "name": "id",
              "type": "uint256"
            },
            {
              "internalType": "uint256",
              "name": "notesValue",
              "type": "uint256"
            },
            {
              "internalType": "address payable",
              "name": "noteTaker",
              "type": "address"
            },
            {
              "internalType": "address payable[]",
              "name": "owners",
              "type": "address[]"
            },
            {
              "internalType": "bool",
              "name": "forBuy",
              "type": "bool"
            },
            {
              "internalType": "bytes32",
              "name": "notesHash",
              "type": "bytes32"
            },
            {
              "internalType": "string",
              "name": "title",
              "type": "string"
            },
            {
              "internalType": "string",
              "name": "description",
              "type": "string"
            }
          ],
          "internalType": "struct NotesExchange.Notes",
          "name": "",
          "type": "tuple"
        }
      ],
      "stateMutability": "view",
      "type": "function",
      "constant": true
    },
    {
      "inputs": [],
      "name": "getServicesCount",
      "outputs": [
        {
          "internalType": "uint256",
          "name": "",
          "type": "uint256"
        }
      ],
      "stateMutability": "view",
      "type": "function",
      "constant": true
    },
    {
      "inputs": [
        {
          "internalType": "uint256",
          "name": "rentingId",
          "type": "uint256"
        }
      ],
      "name": "getService",
      "outputs": [
        {
          "components": [
            {
              "internalType": "uint256",
              "name": "id",
              "type": "uint256"
            },
            {
              "components": [
                {
                  "internalType": "uint256",
                  "name": "id",
                  "type": "uint256"
                },
                {
                  "internalType": "uint256",
                  "name": "notesValue",
                  "type": "uint256"
                },
                {
                  "internalType": "address payable",
                  "name": "noteTaker",
                  "type": "address"
                },
                {
                  "internalType": "address payable[]",
                  "name": "owners",
                  "type": "address[]"
                },
                {
                  "internalType": "bool",
                  "name": "forBuy",
                  "type": "bool"
                },
                {
                  "internalType": "bytes32",
                  "name": "notesHash",
                  "type": "bytes32"
                },
                {
                  "internalType": "string",
                  "name": "title",
                  "type": "string"
                },
                {
                  "internalType": "string",
                  "name": "description",
                  "type": "string"
                }
              ],
              "internalType": "struct NotesExchange.Notes",
              "name": "notes",
              "type": "tuple"
            },
            {
              "internalType": "enum NotesExchange.State",
              "name": "transactionState",
              "type": "uint8"
            },
            {
              "internalType": "uint256",
              "name": "depositedMoney",
              "type": "uint256"
            },
            {
              "internalType": "address payable",
              "name": "renter",
              "type": "address"
            },
            {
              "internalType": "address payable",
              "name": "fulfiller",
              "type": "address"
            },
            {
              "internalType": "string",
              "name": "subject",
              "type": "string"
            },
            {
              "internalType": "uint256",
              "name": "deadline",
              "type": "uint256"
            }
          ],
          "internalType": "struct NotesExchange.NotesService",
          "name": "",
          "type": "tuple"
        }
      ],
      "stateMutability": "view",
      "type": "function",
      "constant": true
    }
  ],
  "bytecode": "0x60806040526000600355600060045534801561001a57600080fd5b50600080546001600160a01b03191633179055615bbf806200003d6000396000f3fe60806040526004361061011b5760003560e01c80630a3276a91461012057806312065fe0146101425780631d3c4f351461016457806321fe0f301461019457806340f81ee5146101b6578063432e3346146101c95780634e86b87d146101e95780635b7baf641461020b5780636468ce281461022b578063677e847114610240578063710be370146102535780638596982d1461026657806386f17bb71461027b5780638da5cb5b146102905780639d1f7b4d146102c8578063a965a941146102e8578063b254871314610315578063b890194a14610335578063c0b1a12314610355578063cd4f58df14610375578063de8f430c14610388578063e05fd1f41461039d578063ef0e239b146103b2578063f99a910c146103df575b600080fd5b34801561012c57600080fd5b5061014061013b366004614f42565b6103ff565b005b34801561014e57600080fd5b50475b6040519081526020015b60405180910390f35b34801561017057600080fd5b5061018461017f3660046150f8565b610b22565b604051901515815260200161015b565b3480156101a057600080fd5b506101a9610b92565b60405161015b919061540e565b6101406101c4366004615470565b610f24565b3480156101d557600080fd5b506101406101e4366004615470565b6110d2565b3480156101f557600080fd5b506101fe61133c565b60405161015b9190615489565b34801561021757600080fd5b50610140610226366004615470565b6115de565b34801561023757600080fd5b50600454610151565b61014061024e3660046154de565b611670565b61014061026136600461556f565b611813565b34801561027257600080fd5b50600354610151565b34801561028757600080fd5b506101fe611a07565b34801561029c57600080fd5b506000546102b0906001600160a01b031681565b6040516001600160a01b03909116815260200161015b565b3480156102d457600080fd5b506101406102e3366004615470565b611f76565b3480156102f457600080fd5b50610308610303366004615470565b6121ce565b60405161015b91906155c9565b34801561032157600080fd5b50610140610330366004615470565b61241d565b34801561034157600080fd5b50610140610350366004615470565b612aff565b34801561036157600080fd5b50610140610370366004615470565b612f3e565b6101406103833660046155e3565b61335e565b34801561039457600080fd5b506101fe613c6e565b3480156103a957600080fd5b506101fe613edf565b3480156103be57600080fd5b506103d26103cd366004615470565b61417e565b60405161015b919061565b565b3480156103eb57600080fd5b506101516103fa366004615470565b614481565b6000828152600260208181526040928390208351610100808201865282548252855190810186526001830180548252948301548185015260038301546001600160a01b03168187015260048301805487518187028101870190985280885292969395878601959294909360608601939192918301828280156104aa57602002820191906000526020600020905b81546001600160a01b0316815260019091019060200180831161048c575b5050509183525050600482015460ff1615156020820152600582015460408201526006820180546060909201916104e09061566e565b80601f016020809104026020016040519081016040528092919081815260200182805461050c9061566e565b80156105595780601f1061052e57610100808354040283529160200191610559565b820191906000526020600020905b81548152906001019060200180831161053c57829003601f168201915b505050505081526020016007820180546105729061566e565b80601f016020809104026020016040519081016040528092919081815260200182805461059e9061566e565b80156105eb5780601f106105c0576101008083540402835291602001916105eb565b820191906000526020600020905b8154815290600101906020018083116105ce57829003601f168201915b505050919092525050508152600982015460209091019060ff16600381111561061657610616615346565b600381111561062757610627615346565b8152600a8201546020820152600b8201546001600160a01b039081166040830152600c830154166060820152600d820180546080909201916106689061566e565b80601f01602080910402602001604051908101604052809291908181526020018280546106949061566e565b80156106e15780601f106106b6576101008083540402835291602001916106e1565b820191906000526020600020905b8154815290600101906020018083116106c457829003601f168201915b5050509183525050600e91909101546020909101526000808260400151600381111561070f5761070f615346565b146107355760405162461bcd60e51b815260040161072c906156a3565b60405180910390fd5b6000848152600260208181526040928390208351610100808201865282548252855190810186526001830180548252948301548185015260038301546001600160a01b03168187015260048301805487518187028101870190985280885292969395878601959294909360608601939192918301828280156107e057602002820191906000526020600020905b81546001600160a01b031681526001909101906020018083116107c2575b5050509183525050600482015460ff1615156020820152600582015460408201526006820180546060909201916108169061566e565b80601f01602080910402602001604051908101604052809291908181526020018280546108429061566e565b801561088f5780601f106108645761010080835404028352916020019161088f565b820191906000526020600020905b81548152906001019060200180831161087257829003601f168201915b505050505081526020016007820180546108a89061566e565b80601f01602080910402602001604051908101604052809291908181526020018280546108d49061566e565b80156109215780601f106108f657610100808354040283529160200191610921565b820191906000526020600020905b81548152906001019060200180831161090457829003601f168201915b505050919092525050508152600982015460209091019060ff16600381111561094c5761094c615346565b600381111561095d5761095d615346565b8152600a8201546020820152600b8201546001600160a01b039081166040830152600c830154166060820152600d8201805460809092019161099e9061566e565b80601f01602080910402602001604051908101604052809291908181526020018280546109ca9061566e565b8015610a175780601f106109ec57610100808354040283529160200191610a17565b820191906000526020600020905b8154815290600101906020018083116109fa57829003601f168201915b50505050508152602001600e82015481525050336001600160a01b03168160a001516001600160a01b031614610a5f5760405162461bcd60e51b815260040161072c906156ca565b6000858152600260205260409020610a79426103e8615729565b81600e015411610ac55760405162461bcd60e51b8152602060048201526017602482015276151a1948191958591b1a5b99481a185cc81c185cdcd959604a1b604482015260640161072c565b600c810180546001600160a01b0319166001600160a01b0387161790556040517f35c0ee6faf3428bd43bb464643e51c4b8181b15bbbf10b7e1222f45c8c459c0d90610b129083906158ca565b60405180910390a1505050505050565b6000805b826060015151811015610b8657836001600160a01b031683606001518281518110610b5357610b53615976565b60200260200101516001600160a01b03161415610b74576001915050610b8c565b80610b7e8161598c565b915050610b26565b50600090505b92915050565b606060006004546001600160401b03811115610bb057610bb0614f72565b604051908082528060200260200182016040528015610be957816020015b610bd6614d9f565b815260200190600190039081610bce5790505b50905060005b600454811015610f1e576000818152600260208181526040928390208351610100808201865282548252855190810186526001830180548252948301548185015260038301546001600160a01b0316818701526004830180548751818702810187019098528088529296939587860195929490936060860193919291830182828015610ca457602002820191906000526020600020905b81546001600160a01b03168152600190910190602001808311610c86575b5050509183525050600482015460ff161515602082015260058201546040820152600682018054606090920191610cda9061566e565b80601f0160208091040260200160405190810160405280929190818152602001828054610d069061566e565b8015610d535780601f10610d2857610100808354040283529160200191610d53565b820191906000526020600020905b815481529060010190602001808311610d3657829003601f168201915b50505050508152602001600782018054610d6c9061566e565b80601f0160208091040260200160405190810160405280929190818152602001828054610d989061566e565b8015610de55780601f10610dba57610100808354040283529160200191610de5565b820191906000526020600020905b815481529060010190602001808311610dc857829003601f168201915b505050919092525050508152600982015460209091019060ff166003811115610e1057610e10615346565b6003811115610e2157610e21615346565b8152600a8201546020820152600b8201546001600160a01b039081166040830152600c830154166060820152600d82018054608090920191610e629061566e565b80601f0160208091040260200160405190810160405280929190818152602001828054610e8e9061566e565b8015610edb5780601f10610eb057610100808354040283529160200191610edb565b820191906000526020600020905b815481529060010190602001808311610ebe57829003601f168201915b50505050508152602001600e82015481525050828281518110610f0057610f00615976565b60200260200101819052508080610f169061598c565b915050610bef565b50919050565b6000818152600160205260409020600481015460ff16610f835760405162461bcd60e51b815260206004820152601a602482015279546865206e6f74657320617265206e6f7420666f722073616c6560301b604482015260640161072c565b8060010154341015610fe15760405162461bcd60e51b815260206004820152602160248201527f4e6f7420656e6f756768206d6f6e657920746f2062757920746865206e6f74656044820152607360f81b606482015260840161072c565b6003810180546001818101835560009283526020832090910180546001600160a01b0319163390811790915560028401549184015460405191936001600160a01b03939093169281156108fc029290818181858888f1935050505015801561104d573d6000803e3d6000fd5b50806001600160a01b03166108fc83600101543461106b91906159a7565b6040518115909202916000818181858888f19350505050158015611093573d6000803e3d6000fd5b507fb232ca21ee94adaf0948361077fd055378e849fe4fc58a4cb8aa14c30389add582826040516110c59291906159be565b60405180910390a1505050565b60008181526001602081815260409283902083516101008101855281548152928101548383015260028101546001600160a01b03168385015260038101805485518185028101850190965280865293949193606086019383018282801561116257602002820191906000526020600020905b81546001600160a01b03168152600190910190602001808311611144575b5050509183525050600482015460ff1615156020820152600582015460408201526006820180546060909201916111989061566e565b80601f01602080910402602001604051908101604052809291908181526020018280546111c49061566e565b80156112115780601f106111e657610100808354040283529160200191611211565b820191906000526020600020905b8154815290600101906020018083116111f457829003601f168201915b5050505050815260200160078201805461122a9061566e565b80601f01602080910402602001604051908101604052809291908181526020018280546112569061566e565b80156112a35780601f10611278576101008083540402835291602001916112a3565b820191906000526020600020905b81548152906001019060200180831161128657829003601f168201915b50505050508152505080604001516001600160a01b0316336001600160a01b0316146112e15760405162461bcd60e51b815260040161072c906159e8565b60008281526001602081905260409182902060048101805460ff191690921790915590517fc001ec7cbe728d682e4808cb45c05030fbea005269bec6684fdd872b7c632d159161133091615a33565b60405180910390a15050565b606060006003546001600160401b0381111561135a5761135a614f72565b60405190808252806020026020018201604052801561139357816020015b611380614de9565b8152602001906001900390816113785790505b5090506000805b6003548110156115d65760008181526001602052604090206004015460ff16156115c45760008181526001602081815260409283902083516101008101855281548152928101548383015260028101546001600160a01b03168385015260038101805485518185028101850190965280865293949193606086019383018282801561144e57602002820191906000526020600020905b81546001600160a01b03168152600190910190602001808311611430575b5050509183525050600482015460ff1615156020820152600582015460408201526006820180546060909201916114849061566e565b80601f01602080910402602001604051908101604052809291908181526020018280546114b09061566e565b80156114fd5780601f106114d2576101008083540402835291602001916114fd565b820191906000526020600020905b8154815290600101906020018083116114e057829003601f168201915b505050505081526020016007820180546115169061566e565b80601f01602080910402602001604051908101604052809291908181526020018280546115429061566e565b801561158f5780601f106115645761010080835404028352916020019161158f565b820191906000526020600020905b81548152906001019060200180831161157257829003601f168201915b5050505050815250508383815181106115aa576115aa615976565b602002602001018190525081806115c09061598c565b9250505b806115ce8161598c565b91505061139a565b509092915050565b6000818152600260205260409020600b8101546001600160a01b031633146116185760405162461bcd60e51b815260040161072c90615a46565b6000600982015460ff16600381111561163357611633615346565b14156116465761164281614495565b5050565b6001600982015460ff16600381111561166157611661615346565b141561011b5761164281614880565b600061167b82614c4c565b9050600085858360405160200161169493929190615a8c565b6040516020818303038152906040528051906020012090506116b4614de9565b600160808201526020810185905233604082015260006040519080825280602002602001820160405280156116f3578160200160208202803683370190505b50606082019081526003805480845260a0840185905260c084018a905260e08401899052600090815260016020818152604092839020865181558187015192810192909255918501516002820180546001600160a01b0319166001600160a01b039092169190911790559251805185949361177393908501920190614e3c565b50608082015160048201805460ff191691151591909117905560a0820151600582015560c082015180516117b1916006840191602090910190614ea1565b5060e082015180516117cd916007840191602090910190614ea1565b505060038054915060006117e08361598c565b9190505550600080516020615b0a8339815191528160405161180291906155c9565b60405180910390a150505050505050565b61181b614d9f565b60e081018390526001600160a01b03821660a0820152346060820152336080820152600060408201819052506004805480835260c0830186905260009081526002602081815260409283902085518155818601518051600183019081558184015194830194909455938401516003820180546001600160a01b0319166001600160a01b03909216919091179055606084015180518796929594936118c3938701920190614e3c565b50608082015160048201805460ff191691151591909117905560a0820151600582015560c08201518051611901916006840191602090910190614ea1565b5060e0820151805161191d916007840191602090910190614ea1565b505050604082015160098201805460ff1916600183600381111561194357611943615346565b02179055506060820151600a8201556080820151600b820180546001600160a01b039283166001600160a01b03199182161790915560a0840151600c8401805491909316911617905560c082015180516119a791600d840191602090910190614ea1565b5060e09190910151600e90910155600480549060006119c58361598c565b91905055507fbc52d5538178622f7c0d8cd83c808c2ae24db92001fe7f3af1dea6741e92b595816040516119f9919061565b565b60405180910390a150505050565b60606000805b600354811015611c215760008181526001602081815260409283902083516101008101855281548152928101548383015260028101546001600160a01b031683850152600381018054855181850281018501909652808652611bfc953395946060860193919290830182828015611aad57602002820191906000526020600020905b81546001600160a01b03168152600190910190602001808311611a8f575b5050509183525050600482015460ff161515602082015260058201546040820152600682018054606090920191611ae39061566e565b80601f0160208091040260200160405190810160405280929190818152602001828054611b0f9061566e565b8015611b5c5780601f10611b3157610100808354040283529160200191611b5c565b820191906000526020600020905b815481529060010190602001808311611b3f57829003601f168201915b50505050508152602001600782018054611b759061566e565b80601f0160208091040260200160405190810160405280929190818152602001828054611ba19061566e565b8015611bee5780601f10611bc357610100808354040283529160200191611bee565b820191906000526020600020905b815481529060010190602001808311611bd157829003601f168201915b505050505081525050610b22565b15611c0f5781611c0b8161598c565b9250505b80611c198161598c565b915050611a0d565b506000816001600160401b03811115611c3c57611c3c614f72565b604051908082528060200260200182016040528015611c7557816020015b611c62614de9565b815260200190600190039081611c5a5790505b5090506000805b600354811015611f6d5760008181526001602081815260409283902083516101008101855281548152928101548383015260028101546001600160a01b031683850152600381018054855181850281018501909652808652611d50953395946060860193919290830182828015611aad576020028201919060005260206000209081546001600160a01b03168152600190910190602001808311611a8f575050509183525050600482015460ff161515602082015260058201546040820152600682018054606090920191611ae39061566e565b15611f5b5760008181526001602081815260409283902083516101008101855281548152928101548383015260028101546001600160a01b031683850152600381018054855181850281018501909652808652939491936060860193830182828015611de557602002820191906000526020600020905b81546001600160a01b03168152600190910190602001808311611dc7575b5050509183525050600482015460ff161515602082015260058201546040820152600682018054606090920191611e1b9061566e565b80601f0160208091040260200160405190810160405280929190818152602001828054611e479061566e565b8015611e945780601f10611e6957610100808354040283529160200191611e94565b820191906000526020600020905b815481529060010190602001808311611e7757829003601f168201915b50505050508152602001600782018054611ead9061566e565b80601f0160208091040260200160405190810160405280929190818152602001828054611ed99061566e565b8015611f265780601f10611efb57610100808354040283529160200191611f26565b820191906000526020600020905b815481529060010190602001808311611f0957829003601f168201915b505050505081525050838381518110611f4157611f41615976565b60200260200101819052508180611f579061598c565b9250505b80611f658161598c565b915050611c7c565b50909392505050565b60008181526001602081815260409283902083516101008101855281548152928101548383015260028101546001600160a01b03168385015260038101805485518185028101850190965280865293949193606086019383018282801561200657602002820191906000526020600020905b81546001600160a01b03168152600190910190602001808311611fe8575b5050509183525050600482015460ff16151560208201526005820154604082015260068201805460609092019161203c9061566e565b80601f01602080910402602001604051908101604052809291908181526020018280546120689061566e565b80156120b55780601f1061208a576101008083540402835291602001916120b5565b820191906000526020600020905b81548152906001019060200180831161209857829003601f168201915b505050505081526020016007820180546120ce9061566e565b80601f01602080910402602001604051908101604052809291908181526020018280546120fa9061566e565b80156121475780601f1061211c57610100808354040283529160200191612147565b820191906000526020600020905b81548152906001019060200180831161212a57829003601f168201915b50505050508152505080604001516001600160a01b0316336001600160a01b0316146121855760405162461bcd60e51b815260040161072c906159e8565b6000828152600160205260409081902060048101805460ff1916905590517ff8875dd83058239da4190adea3c6340cb7cc7f88077fb08292d32aaeacc6f2bb9161133091615a33565b6121d6614de9565b600082815260016020818152604080842081516101008101835281548152938101548484015260028101546001600160a01b03168483015260038101805483518186028101860190945280845291936060860193929083018282801561226557602002820191906000526020600020905b81546001600160a01b03168152600190910190602001808311612247575b5050509183525050600482015460ff16151560208201526005820154604082015260068201805460609092019161229b9061566e565b80601f01602080910402602001604051908101604052809291908181526020018280546122c79061566e565b80156123145780601f106122e957610100808354040283529160200191612314565b820191906000526020600020905b8154815290600101906020018083116122f757829003601f168201915b5050505050815260200160078201805461232d9061566e565b80601f01602080910402602001604051908101604052809291908181526020018280546123599061566e565b80156123a65780601f1061237b576101008083540402835291602001916123a6565b820191906000526020600020905b81548152906001019060200180831161238957829003601f168201915b5050505050815250509050606060005b826060015151811015611f6d57826060015181815181106123d9576123d9615976565b60200260200101518282815181106123f3576123f3615976565b6001600160a01b0390921660209283029190910190910152806124158161598c565b9150506123b6565b6000818152600260208181526040928390208351610100808201865282548252855190810186526001830180548252948301548185015260038301546001600160a01b03168187015260048301805487518187028101870190985280885292969395878601959294909360608601939192918301828280156124c857602002820191906000526020600020905b81546001600160a01b031681526001909101906020018083116124aa575b5050509183525050600482015460ff1615156020820152600582015460408201526006820180546060909201916124fe9061566e565b80601f016020809104026020016040519081016040528092919081815260200182805461252a9061566e565b80156125775780601f1061254c57610100808354040283529160200191612577565b820191906000526020600020905b81548152906001019060200180831161255a57829003601f168201915b505050505081526020016007820180546125909061566e565b80601f01602080910402602001604051908101604052809291908181526020018280546125bc9061566e565b80156126095780601f106125de57610100808354040283529160200191612609565b820191906000526020600020905b8154815290600101906020018083116125ec57829003601f168201915b505050919092525050508152600982015460209091019060ff16600381111561263457612634615346565b600381111561264557612645615346565b8152600a8201546020820152600b8201546001600160a01b039081166040830152600c830154166060820152600d820180546080909201916126869061566e565b80601f01602080910402602001604051908101604052809291908181526020018280546126b29061566e565b80156126ff5780601f106126d4576101008083540402835291602001916126ff565b820191906000526020600020905b8154815290600101906020018083116126e257829003601f168201915b5050509183525050600e91909101546020909101526000808260400151600381111561272d5761272d615346565b1461274a5760405162461bcd60e51b815260040161072c906156a3565b6000838152600260208181526040928390208351610100808201865282548252855190810186526001830180548252948301548185015260038301546001600160a01b03168187015260048301805487518187028101870190985280885292969395878601959294909360608601939192918301828280156127f557602002820191906000526020600020905b81546001600160a01b031681526001909101906020018083116127d7575b5050509183525050600482015460ff16151560208201526005820154604082015260068201805460609092019161282b9061566e565b80601f01602080910402602001604051908101604052809291908181526020018280546128579061566e565b80156128a45780601f10612879576101008083540402835291602001916128a4565b820191906000526020600020905b81548152906001019060200180831161288757829003601f168201915b505050505081526020016007820180546128bd9061566e565b80601f01602080910402602001604051908101604052809291908181526020018280546128e99061566e565b80156129365780601f1061290b57610100808354040283529160200191612936565b820191906000526020600020905b81548152906001019060200180831161291957829003601f168201915b505050919092525050508152600982015460209091019060ff16600381111561296157612961615346565b600381111561297257612972615346565b8152600a8201546020820152600b8201546001600160a01b039081166040830152600c830154166060820152600d820180546080909201916129b39061566e565b80601f01602080910402602001604051908101604052809291908181526020018280546129df9061566e565b8015612a2c5780601f10612a0157610100808354040283529160200191612a2c565b820191906000526020600020905b815481529060010190602001808311612a0f57829003601f168201915b50505050508152602001600e82015481525050336001600160a01b03168160a001516001600160a01b031614612a745760405162461bcd60e51b815260040161072c906156ca565b60008481526002602052604080822060098101805460ff19166003179055600b810154600a820154925191936001600160a01b03909116926108fc811502929091818181858888f19350505050158015612ad2573d6000803e3d6000fd5b50600080516020615b6a83398151915281604051612af091906158ca565b60405180910390a15050505050565b6000818152600260208181526040928390208351610100808201865282548252855190810186526001830180548252948301548185015260038301546001600160a01b0316818701526004830180548751818702810187019098528088529296939587860195929490936060860193919291830182828015612baa57602002820191906000526020600020905b81546001600160a01b03168152600190910190602001808311612b8c575b5050509183525050600482015460ff161515602082015260058201546040820152600682018054606090920191612be09061566e565b80601f0160208091040260200160405190810160405280929190818152602001828054612c0c9061566e565b8015612c595780601f10612c2e57610100808354040283529160200191612c59565b820191906000526020600020905b815481529060010190602001808311612c3c57829003601f168201915b50505050508152602001600782018054612c729061566e565b80601f0160208091040260200160405190810160405280929190818152602001828054612c9e9061566e565b8015612ceb5780601f10612cc057610100808354040283529160200191612ceb565b820191906000526020600020905b815481529060010190602001808311612cce57829003601f168201915b505050919092525050508152600982015460209091019060ff166003811115612d1657612d16615346565b6003811115612d2757612d27615346565b8152600a8201546020820152600b8201546001600160a01b039081166040830152600c830154166060820152600d82018054608090920191612d689061566e565b80601f0160208091040260200160405190810160405280929190818152602001828054612d949061566e565b8015612de15780601f10612db657610100808354040283529160200191612de1565b820191906000526020600020905b815481529060010190602001808311612dc457829003601f168201915b5050509183525050600e919091015460209091015260008082604001516003811115612e0f57612e0f615346565b14612e2c5760405162461bcd60e51b815260040161072c906156a3565b6000838152600260205260409020600b8101546001600160a01b03163314612e665760405162461bcd60e51b815260040161072c90615a46565b60098101805460ff19166003908117909155600b820154600a8301546001600160a01b03909116916108fc91600491612e9f9190615729565b612ea99190615acf565b6040518115909202916000818181858888f19350505050158015612ed1573d6000803e3d6000fd5b50600c810154600a8201546001600160a01b03909116906108fc90612ef890600490615acf565b6040518115909202916000818181858888f19350505050158015612f20573d6000803e3d6000fd5b50600080516020615b6a833981519152816040516119f991906158ca565b6000818152600260208181526040928390208351610100808201865282548252855190810186526001830180548252948301548185015260038301546001600160a01b0316818701526004830180548751818702810187019098528088529296939587860195929490936060860193919291830182828015612fe957602002820191906000526020600020905b81546001600160a01b03168152600190910190602001808311612fcb575b5050509183525050600482015460ff16151560208201526005820154604082015260068201805460609092019161301f9061566e565b80601f016020809104026020016040519081016040528092919081815260200182805461304b9061566e565b80156130985780601f1061306d57610100808354040283529160200191613098565b820191906000526020600020905b81548152906001019060200180831161307b57829003601f168201915b505050505081526020016007820180546130b19061566e565b80601f01602080910402602001604051908101604052809291908181526020018280546130dd9061566e565b801561312a5780601f106130ff5761010080835404028352916020019161312a565b820191906000526020600020905b81548152906001019060200180831161310d57829003601f168201915b505050919092525050508152600982015460209091019060ff16600381111561315557613155615346565b600381111561316657613166615346565b8152600a8201546020820152600b8201546001600160a01b039081166040830152600c830154166060820152600d820180546080909201916131a79061566e565b80601f01602080910402602001604051908101604052809291908181526020018280546131d39061566e565b80156132205780601f106131f557610100808354040283529160200191613220565b820191906000526020600020905b81548152906001019060200180831161320357829003601f168201915b5050509183525050600e91909101546020909101526001808260400151600381111561324e5761324e615346565b1461326b5760405162461bcd60e51b815260040161072c906156a3565b6000838152600260205260409020600b8101546001600160a01b031633146132a55760405162461bcd60e51b815260040161072c90615a46565b60098101805460ff19166002179055600c810154600a8201546040516001600160a01b03909216916108fc82150291906000818181858888f193505050501580156132f4573d6000803e3d6000fd5b50600b810154600482018054600181018255600091825260209091200180546001600160a01b0319166001600160a01b039092169190911790556040517f97035dea4a95b155712b91d0d1a5b72816b117abead1491592031ad4bfd4ad53906119f99083906158ca565b6000848152600260208181526040928390208351610100808201865282548252855190810186526001830180548252948301548185015260038301546001600160a01b031681870152600483018054875181870281018701909852808852929693958786019592949093606086019391929183018282801561340957602002820191906000526020600020905b81546001600160a01b031681526001909101906020018083116133eb575b5050509183525050600482015460ff16151560208201526005820154604082015260068201805460609092019161343f9061566e565b80601f016020809104026020016040519081016040528092919081815260200182805461346b9061566e565b80156134b85780601f1061348d576101008083540402835291602001916134b8565b820191906000526020600020905b81548152906001019060200180831161349b57829003601f168201915b505050505081526020016007820180546134d19061566e565b80601f01602080910402602001604051908101604052809291908181526020018280546134fd9061566e565b801561354a5780601f1061351f5761010080835404028352916020019161354a565b820191906000526020600020905b81548152906001019060200180831161352d57829003601f168201915b505050919092525050508152600982015460209091019060ff16600381111561357557613575615346565b600381111561358657613586615346565b8152600a8201546020820152600b8201546001600160a01b039081166040830152600c830154166060820152600d820180546080909201916135c79061566e565b80601f01602080910402602001604051908101604052809291908181526020018280546135f39061566e565b80156136405780601f1061361557610100808354040283529160200191613640565b820191906000526020600020905b81548152906001019060200180831161362357829003601f168201915b5050509183525050600e91909101546020909101526000808260400151600381111561366e5761366e615346565b1461368b5760405162461bcd60e51b815260040161072c906156a3565b6000868152600260208181526040928390208351610100808201865282548252855190810186526001830180548252948301548185015260038301546001600160a01b031681870152600483018054875181870281018701909852808852929693958786019592949093606086019391929183018282801561373657602002820191906000526020600020905b81546001600160a01b03168152600190910190602001808311613718575b5050509183525050600482015460ff16151560208201526005820154604082015260068201805460609092019161376c9061566e565b80601f01602080910402602001604051908101604052809291908181526020018280546137989061566e565b80156137e55780601f106137ba576101008083540402835291602001916137e5565b820191906000526020600020905b8154815290600101906020018083116137c857829003601f168201915b505050505081526020016007820180546137fe9061566e565b80601f016020809104026020016040519081016040528092919081815260200182805461382a9061566e565b80156138775780601f1061384c57610100808354040283529160200191613877565b820191906000526020600020905b81548152906001019060200180831161385a57829003601f168201915b505050919092525050508152600982015460209091019060ff1660038111156138a2576138a2615346565b60038111156138b3576138b3615346565b8152600a8201546020820152600b8201546001600160a01b039081166040830152600c830154166060820152600d820180546080909201916138f49061566e565b80601f01602080910402602001604051908101604052809291908181526020018280546139209061566e565b801561396d5780601f106139425761010080835404028352916020019161396d565b820191906000526020600020905b81548152906001019060200180831161395057829003601f168201915b50505050508152602001600e82015481525050336001600160a01b03168160a001516001600160a01b0316146139b55760405162461bcd60e51b815260040161072c906156ca565b600087815260026020526040812060098101805460ff19166001179055906139dc86614c4c565b905060008888836040516020016139f593929190615a8c565b604051602081830303815290604052805190602001209050613a15614de9565b60006080820152600a840154613a2a90614481565b60208201523360408201526000604051908082528060200260200182016040528015613a60578160200160208202803683370190505b50606082019081526003805480845260a0840185905260c084018d905260e084018c9052600090815260016020818152604092839020865181558187015192810192909255918501516002820180546001600160a01b0319166001600160a01b0390921691909117905592518051859493613ae093908501920190614e3c565b50608082015160048201805460ff191691151591909117905560a0820151600582015560c08201518051613b1e916006840191602090910190614ea1565b5060e08201518051613b3a916007840191602090910190614ea1565b50506003805491506000613b4d8361598c565b9091555050805160018501908155602080830151600287015560408301516003870180546001600160a01b0319166001600160a01b0390921691909117905560608301518051849392613ba79260048a0192910190614e3c565b50608082015160048201805460ff191691151591909117905560a0820151600582015560c08201518051613be5916006840191602090910190614ea1565b5060e08201518051613c01916007840191602090910190614ea1565b50905050600080516020615b0a83398151915281604051613c2291906155c9565b60405180910390a17f4a6e13477830d4f75ea04837954d4e0505736f183b23c4777bea83b702b388ee84604051613c5991906158ca565b60405180910390a15050505050505050505050565b606060006003546001600160401b03811115613c8c57613c8c614f72565b604051908082528060200260200182016040528015613cc557816020015b613cb2614de9565b815260200190600190039081613caa5790505b50905060005b600354811015610f1e5760008181526001602081815260409283902083516101008101855281548152928101548383015260028101546001600160a01b031683850152600381018054855181850281018501909652808652939491936060860193830182828015613d6557602002820191906000526020600020905b81546001600160a01b03168152600190910190602001808311613d47575b5050509183525050600482015460ff161515602082015260058201546040820152600682018054606090920191613d9b9061566e565b80601f0160208091040260200160405190810160405280929190818152602001828054613dc79061566e565b8015613e145780601f10613de957610100808354040283529160200191613e14565b820191906000526020600020905b815481529060010190602001808311613df757829003601f168201915b50505050508152602001600782018054613e2d9061566e565b80601f0160208091040260200160405190810160405280929190818152602001828054613e599061566e565b8015613ea65780601f10613e7b57610100808354040283529160200191613ea6565b820191906000526020600020905b815481529060010190602001808311613e8957829003601f168201915b505050505081525050828281518110613ec157613ec1615976565b60200260200101819052508080613ed79061598c565b915050613ccb565b6040805160008082526020820190925260609190819081613f16565b613f03614de9565b815260200190600190039081613efb5790505b5090506000805b600354811015611f6d576000818152600160205260409020600201546001600160a01b031633148015613f61575060008181526001602052604090206004015460ff165b1561416c5760008181526001602081815260409283902083516101008101855281548152928101548383015260028101546001600160a01b031683850152600381018054855181850281018501909652808652939491936060860193830182828015613ff657602002820191906000526020600020905b81546001600160a01b03168152600190910190602001808311613fd8575b5050509183525050600482015460ff16151560208201526005820154604082015260068201805460609092019161402c9061566e565b80601f01602080910402602001604051908101604052809291908181526020018280546140589061566e565b80156140a55780601f1061407a576101008083540402835291602001916140a5565b820191906000526020600020905b81548152906001019060200180831161408857829003601f168201915b505050505081526020016007820180546140be9061566e565b80601f01602080910402602001604051908101604052809291908181526020018280546140ea9061566e565b80156141375780601f1061410c57610100808354040283529160200191614137565b820191906000526020600020905b81548152906001019060200180831161411a57829003601f168201915b50505050508152505083838151811061415257614152615976565b602002602001018190525081806141689061598c565b9250505b806141768161598c565b915050613f1d565b614186614d9f565b60008281526002602081815260408084208151610100808201845282548252835190810184526001830180548252958301548186015260038301546001600160a01b03168185015260048301805485518188028101880190965280865292969395878101959294936060860193929183018282801561422e57602002820191906000526020600020905b81546001600160a01b03168152600190910190602001808311614210575b5050509183525050600482015460ff1615156020820152600582015460408201526006820180546060909201916142649061566e565b80601f01602080910402602001604051908101604052809291908181526020018280546142909061566e565b80156142dd5780601f106142b2576101008083540402835291602001916142dd565b820191906000526020600020905b8154815290600101906020018083116142c057829003601f168201915b505050505081526020016007820180546142f69061566e565b80601f01602080910402602001604051908101604052809291908181526020018280546143229061566e565b801561436f5780601f106143445761010080835404028352916020019161436f565b820191906000526020600020905b81548152906001019060200180831161435257829003601f168201915b505050919092525050508152600982015460209091019060ff16600381111561439a5761439a615346565b60038111156143ab576143ab615346565b8152600a8201546020820152600b8201546001600160a01b039081166040830152600c830154166060820152600d820180546080909201916143ec9061566e565b80601f01602080910402602001604051908101604052809291908181526020018280546144189061566e565b80156144655780601f1061443a57610100808354040283529160200191614465565b820191906000526020600020905b81548152906001019060200180831161444857829003601f168201915b5050509183525050600e91909101546020909101529392505050565b6000610b8c670de0b6b3a764000083615acf565b60408051610100808201835283548252825190810183526001840180548252600285015460208381019190915260038601546001600160a01b031683860152600486018054865181840281018401909752808752949587958388019594936060860193919083018282801561453357602002820191906000526020600020905b81546001600160a01b03168152600190910190602001808311614515575b5050509183525050600482015460ff1615156020820152600582015460408201526006820180546060909201916145699061566e565b80601f01602080910402602001604051908101604052809291908181526020018280546145959061566e565b80156145e25780601f106145b7576101008083540402835291602001916145e2565b820191906000526020600020905b8154815290600101906020018083116145c557829003601f168201915b505050505081526020016007820180546145fb9061566e565b80601f01602080910402602001604051908101604052809291908181526020018280546146279061566e565b80156146745780601f1061464957610100808354040283529160200191614674565b820191906000526020600020905b81548152906001019060200180831161465757829003601f168201915b505050919092525050508152600982015460209091019060ff16600381111561469f5761469f615346565b60038111156146b0576146b0615346565b8152600a8201546020820152600b8201546001600160a01b039081166040830152600c830154166060820152600d820180546080909201916146f19061566e565b80601f016020809104026020016040519081016040528092919081815260200182805461471d9061566e565b801561476a5780601f1061473f5761010080835404028352916020019161476a565b820191906000526020600020905b81548152906001019060200180831161474d57829003601f168201915b5050509183525050600e91909101546020909101526000808260400151600381111561479857614798615346565b146147b55760405162461bcd60e51b815260040161072c906156a3565b6147c1426103e8615729565b83600e0154106148135760405162461bcd60e51b815260206004820152601f60248201527f54686520646561646c696e6520686173206e6f74207061737365642079657400604482015260640161072c565b60098301805460ff19166003179055600b830154600a8401546040516001600160a01b03909216916108fc82150291906000818181858888f19350505050158015614862573d6000803e3d6000fd5b50600080516020615b6a833981519152836040516110c591906158ca565b60408051610100808201835283548252825190810183526001840180548252600285015460208381019190915260038601546001600160a01b031683860152600486018054865181840281018401909752808752949587958388019594936060860193919083018282801561491e57602002820191906000526020600020905b81546001600160a01b03168152600190910190602001808311614900575b5050509183525050600482015460ff1615156020820152600582015460408201526006820180546060909201916149549061566e565b80601f01602080910402602001604051908101604052809291908181526020018280546149809061566e565b80156149cd5780601f106149a2576101008083540402835291602001916149cd565b820191906000526020600020905b8154815290600101906020018083116149b057829003601f168201915b505050505081526020016007820180546149e69061566e565b80601f0160208091040260200160405190810160405280929190818152602001828054614a129061566e565b8015614a5f5780601f10614a3457610100808354040283529160200191614a5f565b820191906000526020600020905b815481529060010190602001808311614a4257829003601f168201915b505050919092525050508152600982015460209091019060ff166003811115614a8a57614a8a615346565b6003811115614a9b57614a9b615346565b8152600a8201546020820152600b8201546001600160a01b039081166040830152600c830154166060820152600d82018054608090920191614adc9061566e565b80601f0160208091040260200160405190810160405280929190818152602001828054614b089061566e565b8015614b555780601f10614b2a57610100808354040283529160200191614b55565b820191906000526020600020905b815481529060010190602001808311614b3857829003601f168201915b5050509183525050600e919091015460209091015260018082604001516003811115614b8357614b83615346565b14614ba05760405162461bcd60e51b815260040161072c906156a3565b60098301805460ff19166003179055600b830154600a8401546001600160a01b03909116906108fc90614bd590600290615acf565b6040518115909202916000818181858888f19350505050158015614bfd573d6000803e3d6000fd5b50600c830154600a8401546001600160a01b03909116906108fc90614c2490600290615acf565b6040518115909202916000818181858888f19350505050158015614862573d6000803e3d6000fd5b6060815160001415614c6c57505060408051602081019091526000815290565b6000604051806060016040528060408152602001615b2a6040913990506000600384516002614c9b9190615af1565b614ca59190615acf565b614cb0906004615729565b6001600160401b03811115614cc757614cc7614f72565b6040519080825280601f01601f191660200182016040528015614cf1576020820181803683370190505b509050600182016020820185865187015b80821015614d5d576003820191508151603f8160121c168501518453600184019350603f81600c1c168501518453600184019350603f8160061c168501518453600184019350603f8116850151845350600183019250614d02565b5050600386510660018114614d795760028114614d8c57614d94565b603d6001830353603d6002830353614d94565b603d60018303535b509195945050505050565b60405180610100016040528060008152602001614dba614de9565b815260200160008152600060208201819052604082018190526060808301829052608083015260a09091015290565b604051806101000160405280600081526020016000815260200160006001600160a01b03168152602001606081526020016000151581526020016000801916815260200160608152602001606081525090565b828054828255906000526020600020908101928215614e91579160200282015b82811115614e9157825182546001600160a01b0319166001600160a01b03909116178255602090920191600190910190614e5c565b50614e9d929150614f15565b5090565b828054614ead9061566e565b90600052602060002090601f016020900481019282614ecf5760008555614e91565b82601f10614ee857805160ff1916838001178555614e91565b82800160010185558215614e91579182015b82811115614e91578251825591602001919060010190614efa565b5b80821115614e9d5760008155600101614f16565b6001600160a01b0381168114614f3f57600080fd5b50565b60008060408385031215614f5557600080fd5b823591506020830135614f6781614f2a565b809150509250929050565b634e487b7160e01b600052604160045260246000fd5b60405161010081016001600160401b0381118282101715614fab57614fab614f72565b60405290565b604051601f8201601f191681016001600160401b0381118282101715614fd957614fd9614f72565b604052919050565b8035614fec81614f2a565b919050565b600082601f83011261500257600080fd5b813560206001600160401b0382111561501d5761501d614f72565b8160051b61502c828201614fb1565b928352848101820192828101908785111561504657600080fd5b83870192505b8483101561506e57823561505f81614f2a565b8252918301919083019061504c565b979650505050505050565b80358015158114614fec57600080fd5b600082601f83011261509a57600080fd5b81356001600160401b038111156150b3576150b3614f72565b6150c6601f8201601f1916602001614fb1565b8181528460208386010111156150db57600080fd5b816020850160208301376000918101602001919091529392505050565b6000806040838503121561510b57600080fd5b823561511681614f2a565b915060208301356001600160401b038082111561513257600080fd5b90840190610100828703121561514757600080fd5b61514f614f88565b823581526020830135602082015261516960408401614fe1565b604082015260608301358281111561518057600080fd5b61518c88828601614ff1565b60608301525061519e60808401615079565b608082015260a083013560a082015260c0830135828111156151bf57600080fd5b6151cb88828601615089565b60c08301525060e0830135828111156151e357600080fd5b6151ef88828601615089565b60e0830152508093505050509250929050565b6001600160a01b03169052565b600081518084526020808501945080840160005b838110156152485781516001600160a01b031687529582019590820190600101615223565b509495945050505050565b60005b8381101561526e578181015183820152602001615256565b8381111561527d576000848401525b50505050565b6000815180845261529b816020860160208601615253565b601f01601f19169290920160200192915050565b6000610100825184526020830151602085015260018060a01b03604084015116604085015260608301518160608601526152eb8286018261520f565b9150506080830151615301608086018215159052565b5060a083015160a085015260c083015184820360c08601526153238282615283565b91505060e083015184820360e086015261533d8282615283565b95945050505050565b634e487b7160e01b600052602160045260246000fd5b6004811061537a57634e487b7160e01b600052602160045260246000fd5b9052565b600061010082518452602083015181602086015261539e828601826152af565b91505060408301516153b3604086018261535c565b5060608301516060850152608083015160018060a01b0380821660808701528060a08601511660a0870152505060c083015184820360c08601526153f78282615283565b91505060e083015160e08501528091505092915050565b6000602080830181845280855180835260408601915060408160051b870101925083870160005b8281101561546357603f1988860301845261545185835161537e565b94509285019290850190600101615435565b5092979650505050505050565b60006020828403121561548257600080fd5b5035919050565b6000602080830181845280855180835260408601915060408160051b870101925083870160005b8281101561546357603f198886030184526154cc8583516152af565b945092850192908501906001016154b0565b600080600080608085870312156154f457600080fd5b84356001600160401b038082111561550b57600080fd5b61551788838901615089565b9550602087013591508082111561552d57600080fd5b61553988838901615089565b945060408701359350606087013591508082111561555657600080fd5b5061556387828801615089565b91505092959194509250565b60008060006060848603121561558457600080fd5b83356001600160401b0381111561559a57600080fd5b6155a686828701615089565b9350506020840135915060408401356155be81614f2a565b809150509250925092565b6020815260006155dc60208301846152af565b9392505050565b600080600080608085870312156155f957600080fd5b8435935060208501356001600160401b038082111561561757600080fd5b61562388838901615089565b9450604087013591508082111561563957600080fd5b61564588838901615089565b9350606087013591508082111561555657600080fd5b6020815260006155dc602083018461537e565b600181811c9082168061568257607f821691505b60208210811415610f1e57634e487b7160e01b600052602260045260246000fd5b6020808252600d908201526c496e76616c696420737461746560981b604082015260600190565b60208082526029908201527f4f6e6c79207468652066756c66696c6c65722063616e2063616c6c207468697360408201526810333ab731ba34b7b760b91b606082015260800190565b634e487b7160e01b600052601160045260246000fd5b600081600019048311821515161561574357615743615713565b500290565b6001600160a01b031690565b6000815480845260208085019450836000528060002060005b838110156152485781546001600160a01b03168752958201956001918201910161576d565b8054600090600181811c90808316806157ac57607f831692505b60208084108214156157ce57634e487b7160e01b600052602260045260246000fd5b838852602088018280156157e957600181146157fa57615825565b60ff19871682528282019750615825565b60008981526020902060005b8781101561581f57815484820152908601908401615806565b83019850505b5050505050505092915050565b600061010082548452600183015460208501526158526002840154615748565b61585f6040860182615202565b5080606085015261587581850160038501615754565b9050615885600484015460ff1690565b15156080850152600583015460a085015283810360c08501526158ab8160068501615792565b905083810360e08501526158c28160078501615792565b949350505050565b602081528154602082015260006101008060408401526158f1610120840160018601615832565b600985015460ff16615906606086018261535c565b50600a850154608085015261591e600b860154615748565b61592b60a0860182615202565b50615939600c860154615748565b61594660c0860182615202565b50838103601f190160e085015261596081600d8701615792565b9050600e85015482850152809250505092915050565b634e487b7160e01b600052603260045260246000fd5b60006000198214156159a0576159a0615713565b5060010190565b6000828210156159b9576159b9615713565b500390565b6040815260006159d16040830185615832565b905060018060a01b03831660208301529392505050565b6020808252602b908201527f4f6e6c7920746865206e6f74652074616b65722063616e2063616c6c2074686960408201526a3990333ab731ba34b7b71760a91b606082015260800190565b6020815260006155dc6020830184615832565b60208082526026908201527f4f6e6c79207468652072656e7465722063616e2063616c6c20746869732066756040820152653731ba34b7b760d11b606082015260800190565b60008451615a9e818460208901615253565b845190830190615ab2818360208901615253565b8451910190615ac5818360208801615253565b0195945050505050565b600082615aec57634e487b7160e01b600052601260045260246000fd5b500490565b60008219821115615b0457615b04615713565b50019056fe95b7135f9b1809d1fd88d1e4b3eb6239326b6d84c4f744629ae89d39b699d3904142434445464748494a4b4c4d4e4f505152535455565758595a6162636465666768696a6b6c6d6e6f707172737475767778797a303132333435363738392b2fce6a878487db51a5daf6e8ef5d4fb3dc3715089c7283acb828429511c6de9d02a2646970667358221220969ccd3e640d49185ee83d4def6df78dadc04434537a695c2393511495b72dd664736f6c634300080b0033",
  "immutableReferences": {},
  "source": "// SPDX-License-Identifier: MIT\r\npragma solidity ^0.8.9;\r\n\r\nimport \"@openzeppelin/contracts/utils/Base64.sol\"; // npm dependency\r\n\r\ncontract NotesExchange {\r\n    address payable public owner; // The address of the owner of the contract (manager of the system)\r\n    mapping(uint256 => Notes) private notesMapping; // The mapping of all notes that exist\r\n    mapping(uint256 => NotesService) private rentingList; // The list of all renting offers that exist, indexed by their ID\r\n    uint256 private notesTotalCount = 0; // The total number of notes that exist\r\n    uint256 private rentingTotalCount = 0; // The total number of notes that exist\r\n\r\n    /* Possible states for a renting transaction:\r\n     *   - Pending: The note taking offer has been created by the noteTaker, but has not been fulfilled yet.\r\n     *   - AwaitingAcceptance: The fulfiller has submitted the notes but the requester still has to say that they are good.\r\n     *   - Completed: The note taking offer has been completed by the noteTaker and the renter has claimed the notes.\r\n     *   - Aborted: Several possibilities:\r\n     *     1. The note taking offer has been aborted by the noteTaker while it was pending.\r\n     *     2. The fulfiller submitted the notes, but they were rejected by the renter. The fulfiller gets 1/2 of the deposit, the renter the other half.\r\n     *     3. The deadline has passed and the user has requested a refund.\r\n     */\r\n    enum State {\r\n        Pending,\r\n        AwaitingAcceptance,\r\n        Completed,\r\n        Aborted\r\n    }\r\n\r\n    struct Notes {\r\n        uint256 id; // Or use the hash?\r\n        uint256 notesValue; // The value of the notes.\r\n        address payable noteTaker; // The address of the note taker\r\n        address payable[] owners; // The address of the people who have purchased the notes\r\n        bool forBuy; // Indicates if the notes are for sale or for renting\r\n        bytes32 notesHash; // The hash of the notes\r\n        string title;\r\n        string description;\r\n    }\r\n\r\n    struct NotesService {\r\n        uint256 id;\r\n        Notes notes;\r\n        State transactionState; // The current state of the renting transaction. Default value: Pending\r\n        uint256 depositedMoney; // The total money sent. This is the value of the notes.\r\n        address payable renter;\r\n        address payable fulfiller;\r\n        string subject;\r\n        uint256 deadline; // The deadline for the note taker to complete the transaction\r\n    }\r\n\r\n    /* To rent the notes, both renter and noteTaker have to deposit twice the value of the notes.\r\n       When the transaction is completed, the noteTaker will receive 3 times the value of the notes.\r\n       The renter will receive the value of the notes. \r\n       This motivates both parties to complete the transaction as soon as possible.\r\n    */\r\n\r\n    // Events to keep a record of the transaction\r\n    event NotesSold(Notes notes, address renter);\r\n\r\n    event NotesForSaleEnabled(Notes notes);\r\n\r\n    event NotesForSaleDisabled(Notes notes);\r\n\r\n    event NotesPublished(Notes notes);\r\n\r\n    event NotesServicePending(NotesService renting);\r\n\r\n    event NotesServiceAborted(NotesService renting);\r\n\r\n    event NotesServiceAwaitingAcceptance(NotesService renting);\r\n\r\n    event NotesServiceCompleted(NotesService renting);\r\n\r\n    event NotesServiceDelegated(NotesService renting);\r\n\r\n    // Modifier that checks if the caller is the noteTaker\r\n    modifier onlyNoteTaker(Notes memory note) {\r\n        require(\r\n            payable(msg.sender) == note.noteTaker,\r\n            \"Only the note taker can call this function.\"\r\n        );\r\n        _;\r\n    }\r\n\r\n    // Modifier that checks if the caller is the renter\r\n    modifier onlyRenter(Notes memory note) {\r\n        require(\r\n            owns(msg.sender, note),\r\n            \"Only the renter can call this function\"\r\n        );\r\n        _;\r\n    }\r\n\r\n    // Modifier that checks if the caller is the fulfiller of the service\r\n    modifier onlyFulfiller(NotesService memory renting) {\r\n        require(\r\n            renting.fulfiller == payable(msg.sender),\r\n            \"Only the fulfiller can call this function\"\r\n        );\r\n        _;\r\n    }\r\n\r\n    // Modifier that checks if the transaction is in the state passed as argument\r\n    modifier inState(NotesService memory renting, State expectedState) {\r\n        require(renting.transactionState == expectedState, \"Invalid state\");\r\n        _;\r\n    }\r\n\r\n    constructor() {\r\n        // Establish the owner of the contract\r\n        owner = payable(msg.sender);\r\n    }\r\n\r\n    // Converts Wei to ETH\r\n    function weiToEth(uint256 weiAmount) public pure returns (uint256) {\r\n        return weiAmount / 1e18;\r\n    }\r\n\r\n    // Function to check if an address has bought a note\r\n    function owns(address renter, Notes memory note)\r\n        public\r\n        pure\r\n        returns (bool)\r\n    {\r\n        for (uint256 i = 0; i < note.owners.length; i++) {\r\n            if (note.owners[i] == renter) {\r\n                return true;\r\n            }\r\n        }\r\n        return false;\r\n    }\r\n\r\n    // Function to buy notes that were published for sale\r\n    function buyNotes(uint256 notesId) public payable {\r\n        Notes storage notes = notesMapping[notesId];\r\n        require(notes.forBuy, \"The notes are not for sale\");\r\n        require(\r\n            msg.value >= notes.notesValue,\r\n            \"Not enough money to buy the notes\"\r\n        );\r\n\r\n        address payable renter = payable(msg.sender);\r\n        notes.owners.push(renter);\r\n\r\n        // To avoid reentrancy attacks, the transfer of the money is done last\r\n\r\n        payable(notes.noteTaker).transfer(notes.notesValue);\r\n        renter.transfer(msg.value - notes.notesValue);\r\n\r\n        // Register the transaction through an event\r\n        emit NotesSold(notes, renter);\r\n    }\r\n\r\n    // Function to publish already taken notes for sale\r\n    function publishNotesForSale(\r\n        string memory title,\r\n        string memory description,\r\n        uint256 notesValue,\r\n        bytes memory data\r\n    ) public payable {\r\n        string memory pdf = Base64.encode(data);\r\n        bytes32 notesHash = keccak256(\r\n            abi.encodePacked(title, description, pdf)\r\n        );\r\n\r\n        // Initialize a new notes struct\r\n        Notes memory newNotes;\r\n        newNotes.forBuy = true;\r\n        newNotes.notesValue = notesValue;\r\n        newNotes.noteTaker = payable(msg.sender);\r\n        newNotes.owners = new address payable[](0);\r\n        newNotes.id = notesTotalCount;\r\n        newNotes.notesHash = notesHash;\r\n        newNotes.title = title;\r\n        newNotes.description = description;\r\n\r\n        // Add the notes to the list of notes\r\n        notesMapping[newNotes.id] = newNotes;\r\n        notesTotalCount++;\r\n\r\n        emit NotesPublished(newNotes);\r\n    }\r\n\r\n    function enableNotesForSale(uint256 notesId)\r\n        public\r\n        onlyNoteTaker(notesMapping[notesId])\r\n    {\r\n        notesMapping[notesId].forBuy = true;\r\n        emit NotesForSaleEnabled(notesMapping[notesId]);\r\n    }\r\n\r\n    function disableNotesForSale(uint256 notesId)\r\n        public\r\n        onlyNoteTaker(notesMapping[notesId])\r\n    {\r\n        notesMapping[notesId].forBuy = false;\r\n        emit NotesForSaleDisabled(notesMapping[notesId]);\r\n    }\r\n\r\n    // Function to publish a renting offer to take notes in the future\r\n    function createNotesService(\r\n        string memory subject,\r\n        uint256 deadline,\r\n        address fulfiller\r\n    ) public payable {\r\n        // Initialize a new notes struct\r\n        NotesService memory renting;\r\n        renting.deadline = deadline;\r\n        renting.fulfiller = payable(fulfiller);\r\n        renting.depositedMoney = msg.value;\r\n        renting.renter = payable(msg.sender);\r\n        renting.transactionState = State.Pending;\r\n        renting.id = rentingTotalCount;\r\n        renting.subject = subject;\r\n\r\n        // Add the notes to the list of notes\r\n        rentingList[renting.id] = renting;\r\n        rentingTotalCount++;\r\n\r\n        emit NotesServicePending(renting);\r\n    }\r\n\r\n    // Function to abort a renting offer. The fulfiller can abort before fulfilling the service.\r\n    function delegateNotesService(\r\n        uint256 rentingId,\r\n        address newFulfiller\r\n        )\r\n        public\r\n        inState(rentingList[rentingId], State.Pending)\r\n        onlyFulfiller(rentingList[rentingId])\r\n    {\r\n        NotesService storage renting = rentingList[rentingId];\r\n        require(\r\n            renting.deadline > (block.timestamp * 1000), // Convert seconds to milliseconds (block.timestamp)\r\n            \"The deadline has passed\"\r\n        );\r\n\r\n        renting.fulfiller = payable(newFulfiller);\r\n\r\n        emit NotesServiceDelegated(renting);\r\n    }\r\n\r\n    // Function to abort a renting offer. The fulfiller can abort before fulfilling the service.\r\n    function rejectService(uint256 rentingId)\r\n        public\r\n        inState(rentingList[rentingId], State.Pending)\r\n        onlyFulfiller(rentingList[rentingId])\r\n    {\r\n        NotesService storage renting = rentingList[rentingId];\r\n\r\n        // To prevent a re-entrancy attack, the state is changed before sending the money\r\n        renting.transactionState = State.Aborted;\r\n\r\n        renting.renter.transfer(renting.depositedMoney); // Return the deposit money to the renter\r\n\r\n        emit NotesServiceAborted(renting);\r\n    }\r\n\r\n    function cancelRequestedService(uint256 rentingId)\r\n        public\r\n        inState(rentingList[rentingId], State.Pending)\r\n    {\r\n        NotesService storage renting = rentingList[rentingId];\r\n        require(\r\n            renting.renter == payable(msg.sender),\r\n            \"Only the renter can call this function\"\r\n        );\r\n        // To prevent a re-entrancy attack, the state is changed before sending the money\r\n        renting.transactionState = State.Aborted;\r\n\r\n        renting.renter.transfer((renting.depositedMoney * 3) / 4); // Return 3/4 of the deposit money to the renter\r\n        renting.fulfiller.transfer((renting.depositedMoney) / 4); // Return 1/4 of the deposit money to the noteTaker\r\n\r\n        emit NotesServiceAborted(renting);\r\n    }\r\n\r\n    // Function to abort a renting offer. The fulfiller can abort before fulfilling the service.\r\n    function claimRefund(uint256 rentingId) public {\r\n        NotesService storage renting = rentingList[rentingId];\r\n        require(\r\n            renting.renter == payable(msg.sender),\r\n            \"Only the renter can call this function\"\r\n        );\r\n\r\n        if (renting.transactionState == State.Pending) {\r\n            claimRefundDeadlinePassed(renting);\r\n        } else if (renting.transactionState == State.AwaitingAcceptance) {\r\n            claimRefundNotAccepted(renting);\r\n        } else {\r\n            revert(); // The transaction is not in a state where a refund can be claimed\r\n        }\r\n    }\r\n\r\n    function claimRefundDeadlinePassed(NotesService storage renting)\r\n        private\r\n        inState(renting, State.Pending)\r\n    {\r\n        require(\r\n            renting.deadline < (block.timestamp * 1000), // Convert seconds to milliseconds (block.timestamp)\r\n            \"The deadline has not passed yet\"\r\n        );\r\n\r\n        // To prevent a re-entrancy attack, the state is changed before sending the money\r\n        renting.transactionState = State.Aborted;\r\n\r\n        renting.renter.transfer(renting.depositedMoney); // Return the deposit money to the renter\r\n\r\n        emit NotesServiceAborted(renting);\r\n    }\r\n\r\n    function claimRefundNotAccepted(NotesService storage renting)\r\n        private\r\n        inState(renting, State.AwaitingAcceptance)\r\n    {\r\n        // To prevent a re-entrancy attack, the state is changed before sending the money\r\n        renting.transactionState = State.Aborted;\r\n\r\n        renting.renter.transfer(renting.depositedMoney / 2); // Return half the deposit money to the renter\r\n        renting.fulfiller.transfer(renting.depositedMoney / 2); // Return half the deposit money to the noteTaker\r\n\r\n        emit NotesServiceAborted(renting);\r\n    }\r\n\r\n    // The fulfiller has done its job and is waiting for the noteTaker to accept the service\r\n    function fulfillNotesService(\r\n        uint256 rentingId,\r\n        string memory title,\r\n        string memory description,\r\n        bytes memory data\r\n    )\r\n        public\r\n        payable\r\n        inState(rentingList[rentingId], State.Pending)\r\n        onlyFulfiller(rentingList[rentingId])\r\n    {\r\n        NotesService storage renting = rentingList[rentingId];\r\n\r\n        renting.transactionState = State.AwaitingAcceptance;\r\n\r\n        string memory pdf = Base64.encode(data);\r\n        bytes32 notesHash = keccak256(\r\n            abi.encodePacked(title, description, pdf)\r\n        );\r\n\r\n        // Initialize a new notes struct\r\n        Notes memory newNotes;\r\n        newNotes.forBuy = false;\r\n        newNotes.notesValue = weiToEth(renting.depositedMoney);\r\n        newNotes.noteTaker = payable(msg.sender);\r\n        newNotes.owners = new address payable[](0);\r\n        newNotes.id = notesTotalCount;\r\n        newNotes.notesHash = notesHash;\r\n        newNotes.title = title;\r\n        newNotes.description = description;\r\n\r\n        // Add the notes to the list of notes\r\n        notesMapping[newNotes.id] = newNotes;\r\n        notesTotalCount++;\r\n\r\n        renting.notes = newNotes;\r\n\r\n        emit NotesPublished(newNotes);\r\n        emit NotesServiceAwaitingAcceptance(renting);\r\n    }\r\n\r\n    function acceptNotesService(uint256 rentingId)\r\n        public\r\n        inState(rentingList[rentingId], State.AwaitingAcceptance)\r\n    {\r\n        NotesService storage renting = rentingList[rentingId];\r\n        require(\r\n            renting.renter == payable(msg.sender),\r\n            \"Only the renter can call this function\"\r\n        );\r\n\r\n        // To prevent a re-entrancy attack, the state is changed before sending the money\r\n        renting.transactionState = State.Completed;\r\n\r\n        renting.fulfiller.transfer(renting.depositedMoney); // Send the deposit money to the noteTaker\r\n        renting.notes.owners.push(renting.renter); // Set the noteTaker as the owner of the notes\r\n\r\n        emit NotesServiceCompleted(renting);\r\n    }\r\n\r\n    // Get the balance of the contract\r\n    function getBalance() public view returns (uint256) {\r\n        return address(this).balance;\r\n    }\r\n\r\n    // Get all notes that are currently marked as being forBuy\r\n    function getAllNotesOnSale() public view returns (Notes[] memory) {\r\n        //Notes[] memory notesOnSale = new Notes[](notesTotalCount - NotesSold); // Do we want to keep track of the notes sold?\r\n        Notes[] memory notesOnSale = new Notes[](notesTotalCount);\r\n        uint256 idx = 0;\r\n        for (uint256 i = 0; i < notesTotalCount; i++) {\r\n            if (notesMapping[i].forBuy) {\r\n                notesOnSale[idx] = notesMapping[i];\r\n                idx++;\r\n            }\r\n        }\r\n        return notesOnSale;\r\n    }\r\n\r\n    // Get all notes that are owned by the caller\r\n    function getMyNotes() public view returns (Notes[] memory) {\r\n        uint256 myNotesCount = 0;\r\n        for (uint256 i = 0; i < notesTotalCount; i++) {\r\n            if (owns(msg.sender, notesMapping[i])) {\r\n                myNotesCount++;\r\n            }\r\n        }\r\n\r\n        Notes[] memory myNotes = new Notes[](myNotesCount);\r\n        uint256 idx = 0;\r\n        for (uint256 i = 0; i < notesTotalCount; i++) {\r\n            if (owns(msg.sender, notesMapping[i])) {\r\n                myNotes[idx] = notesMapping[i];\r\n                idx++;\r\n            }\r\n        }\r\n        return myNotes;\r\n    }\r\n\r\n    // Get all notes that are owned by the caller and are for sale\r\n    function getMyNotesOnSale() public view returns (Notes[] memory) {\r\n        uint256 myNotesCount = 0;\r\n        Notes[] memory myNotes = new Notes[](myNotesCount);\r\n        uint256 idx = 0;\r\n        for (uint256 i = 0; i < notesTotalCount; i++) {\r\n            if (\r\n                notesMapping[i].noteTaker == msg.sender &&\r\n                notesMapping[i].forBuy\r\n            ) {\r\n                myNotes[idx] = notesMapping[i];\r\n                idx++;\r\n            }\r\n        }\r\n        return myNotes;\r\n    }\r\n\r\n    // Get all notes\r\n    function getAllNotes() public view returns (Notes[] memory) {\r\n        Notes[] memory allNotes = new Notes[](notesTotalCount);\r\n        for (uint256 i = 0; i < notesTotalCount; i++) {\r\n            allNotes[i] = notesMapping[i];\r\n        }\r\n        return allNotes;\r\n    }\r\n\r\n    // Get all services\r\n    function getAllServices() public view returns (NotesService[] memory) {\r\n        NotesService[] memory allServs = new NotesService[](rentingTotalCount);\r\n        for (uint256 i = 0; i < rentingTotalCount; i++) {\r\n            allServs[i] = rentingList[i];\r\n        }\r\n        return allServs;\r\n    }\r\n\r\n    // Get the total number of notes\r\n    function getNotesCount() public view returns (uint256) {\r\n        return notesTotalCount;\r\n    }\r\n\r\n    // Get the details of a note\r\n    function getNote(uint256 notesId) public view returns (Notes memory) {\r\n        Notes memory notes = notesMapping[notesId];\r\n        address[] memory owners; // We need to cast this\r\n        for (uint256 i = 0; i < notes.owners.length; i++) {\r\n            owners[i] = notes.owners[i];\r\n        }\r\n        return (notes);\r\n    }\r\n\r\n    // Get the total number of notes\r\n    function getServicesCount() public view returns (uint256) {\r\n        return rentingTotalCount;\r\n    }\r\n\r\n    // Get the details of a note\r\n    function getService(uint256 rentingId)\r\n        public\r\n        view\r\n        returns (NotesService memory)\r\n    {\r\n        NotesService memory renting = rentingList[rentingId];\r\n        return (renting);\r\n    }\r\n}\r\n",
  "sourcePath": "C:\\Users\\User\\Desktop\\Repos\\NotesExchange\\contracts\\NotesExchange.sol",
  "compiler": {
    "name": "solc",
    "version": "0.8.11+commit.d7f03943.Emscripten.clang"
  },
  "schemaVersion": "3.4.14",
  "updatedAt": "2023-07-18T11:47:07.158Z",
  "networkType": "ethereum",
  "devdoc": {
    "kind": "dev",
    "methods": {},
    "version": 1
  },
  "userdoc": {
    "kind": "user",
    "methods": {},
    "version": 1
  }
}